{
    "contractName": "functions",
    "abi": [
        {
            "inputs": [
                {
                    "internalType": "uint256",
                    "name": "num1",
                    "type": "uint256"
                },
                {
                    "internalType": "uint256",
                    "name": "num2",
                    "type": "uint256"
                }
            ],
            "name": "getSum",
            "outputs": [
                {
                    "internalType": "uint256",
                    "name": "",
                    "type": "uint256"
                }
            ],
            "stateMutability": "view",
            "type": "function"
        },
        {
            "inputs": [
                {
                    "internalType": "uint256",
                    "name": "num1",
                    "type": "uint256"
                },
                {
                    "internalType": "uint256",
                    "name": "num2",
                    "type": "uint256"
                },
                {
                    "internalType": "uint256",
                    "name": "num3",
                    "type": "uint256"
                }
            ],
            "name": "getSum",
            "outputs": [
                {
                    "internalType": "uint256",
                    "name": "",
                    "type": "uint256"
                }
            ],
            "stateMutability": "view",
            "type": "function"
        }
    ],
    "bytecode": "60808060405234601757600a5f5560d69081601c8239f35b5f80fdfe608060405260043610156010575f80fd5b5f3560e01c80638e86b1251460625763cb2b081914602c575f80fd5b34605e576060366003190112605e5760206056604435605260243560526004355f546080565b6080565b604051908152f35b5f80fd5b34605e576040366003190112605e576020605660243560526004355f545b91908201809211608c57565b634e487b7160e01b5f52601160045260245ffdfea26469706673582212209c2972d9372157407dab1350658d41ae345c24ccaa25a952429b493374ec966864736f6c634300081e0033",
    "sourcePath": "c:/Users/vivek/OneDrive/Documents/Projects/4-1 Minor Project/URL-CLASSIFIER-main/first.sol",
    "compiler": {
        "name": "solc",
        "version": "0.8.30+commit.73712a01"
    },
    "functionHashes": {
        "getSum(uint256,uint256)": "8e86b125",
        "getSum(uint256,uint256,uint256)": "cb2b0819"
    },
    "gasEstimates": {
        "creation": {
            "codeDepositCost": "42800",
            "executionCost": "22204",
            "totalCost": "65004"
        },
        "external": {
            "getSum(uint256,uint256)": "infinite",
            "getSum(uint256,uint256,uint256)": "infinite"
        }
    }
}